:020000040800F2
:1000000000500020ED1E00085D1E00085F1E000865
:10001000611E0008631E0008651E00080000000045
:10002000000000000000000000000000F1160008C1
:10003000671E00080000000091170008691E0008F4
:10004000351F0008351F0008351F0008351F000840
:10005000351F0008351F0008351F0008351F000830
:10006000351F0008351F0008351F0008351F000820
:10007000351F0008351F0008351F0008351F000810
:10008000751E0008851E0008351F0008351F000872
:10009000351F0008351F0008351F0008351F0008F0
:1000A000351F0008351F0008351F0008351F0008E0
:1000B000351F0008351F0008351F0008351F0008D0
:1000C000351F0008351F0008351F0008351F0008C0
:1000D000351F0008351F0008351F0008351F0008B0
:1000E000951E0008351F0008351F0008000000009D
:1000F0000000000000000000000000000000000000
:0C01000000000000000000005FF808F1A3
:1001100010B5054C237833B9044B13B10448AFF341
:1001200000800123237010BD10000020000000009B
:10013000801F000808B5034B1BB103490348AFF308
:10014000008008BD0000000014000020801F00088F
:1001500010B504460E4B18784FF47A73B3FBF0F3E6
:100160000C4A1068B0FBF3F000F08CF868B90F2C63
:1001700001D901200AE0002221464FF0FF3000F0B3
:1001800041F8034B5C60002000E0012010BD00BF7F
:10019000000000200C00002008B5074A136843F057
:1001A00010031360032000F01BF80F20FFF7D0FFAF
:1001B00001F0A8FD002008BD00200240034A11689C
:1001C000034B1B780B441360704700BF780D002071
:1001D00000000020014B1868704700BF780D002018
:1001E000074AD36823F4E0631B041B0C000200F4ED
:1001F000E060184340F0BF6040F40030D0607047CA
:1002000000ED00E030B4174BDB68C3F30223C3F109
:100210000704042C28BF04241D1D062D18D9033BF8
:100220004FF0FF3505FA04F421EA0401994005FA7C
:1002300003F322EA0303194300280BDB0901C9B2C7
:1002400000F1604000F5614080F8001330BC704759
:100250000023E5E700F00F000901C9B2024B195471
:10026000F4E700BF00ED00E014ED00E000F01F0235
:10027000400901239340024A42F82030704700BFF2
:1002800000E100E00138B0F1807F0AD2064B5860EF
:10029000064AF02182F823100020986007221A6095
:1002A00070470120704700BF10E000E000ED00E063
:1002B000042805D0054A136823F00403136070472F
:1002C000024A136843F004031360704710E000E033
:1002D000002830D010B403460168184A0A44184870
:1002E000A0FB0202120992001A64164ADA63022283
:1002F00083F82120086820F47F5020F030005A68ED
:100300009C682243DC6822431C6922435C692243C7
:100310009C692243DC69224302430A600020986200
:10032000D862186358639863012283F8212083F808
:10033000200010BC70470120704700BFF8FFFDBFD0
:10034000CDCCCCCC0000024038B5C36B1A68046831
:100350002568016C04238B40134235D015F0040F3F
:1003600032D0236813F0200F03D1236823F0040355
:1003700023600368434A934214D01432934218D046
:100380001432934217D01432934217D0143293424E
:1003900017D01432934202D04FF0806203E04FF442
:1003A000800200E00422384B5A60C36A03B19847C8
:1003B00038BD4022F7E74FF48062F4E74FF4804203
:1003C000F1E74FF48022EEE702238B4013423CD04A
:1003D00015F0020F39D0236813F0200F06D12368DF
:1003E00023F00A032360012380F821300368254AA3
:1003F000934214D0143293421CD0143293421BD037
:10040000143293421BD0143293421BD014329342C5
:1004100002D04FF0007203E04FF4001200E002221D
:10042000194B5A60002380F82030836A002BBFD01C
:100430009847BDE72022F3E74FF40072F0E74FF44E
:100440000052EDE74FF40032EAE7082303FA01F126
:100450001142ADD015F0080FAAD0236823F00E0387
:100460002360026CC16B012303FA02F24A608363CA
:1004700080F82130002380F82030036B002B97D0C8
:10048000984795E70800024000000240F0B482B0AF
:1004900000263546A1E0002C59D0012C00D1CE68B1
:1004A000FF2B68D88446FF2B68D8AC00DCF800200E
:1004B0000F27A74022EA070206FA04F42243CCF8E9
:1004C00000204A6812F0805F00F086805E4A9469DE
:1004D00044F001049461926902F001020192019AD0
:1004E000AC08A71C594A52F8272005F00307BF00A3
:1004F0004FF00F0C0CFA07FC22EA0C0C544A904205
:1005000042D002F5806290427FD002F58062904234
:100510007DD002F58062904234D0042235E04D4F08
:10052000BC4214D00BD94C4FBC4210D007F58037D9
:10053000BC420CD0A7F58017BC42B1D107E0A7F5AB
:100540008017BC4203D007F58037BC42A8D18C6825
:100550007CB1012C08D042610826A1E7CE6808369C
:100560009EE7CE680C369BE70261082698E70026D6
:1005700096E7042694E700F1040C94E7A5F108043B
:10058000A40093E7032200E00022BA4042EA0C02F2
:1005900002342E4F47F824204A6812F4803F38D0A6
:1005A0002E4C22681A4322604A6812F4003F36D06B
:1005B0002A4C62681A4362604A6812F4801F34D081
:1005C000264CA2681A43A2604A6812F4001F32D077
:1005D000224CE2681343E36001350F2D31D801222C
:1005E000AA400B6813409A42F6D14C68122CB8D03E
:1005F00095D8022CB2D07FF64EAF032CB7D0112C79
:100600007FF44EAFCE6804364AE70122BDE70222EE
:10061000BBE7124C226822EA03022260C4E70F4CB7
:10062000626822EA03026260C6E70C4CA26822EA12
:100630000302A260C8E7094CE26822EA0303E36010
:10064000CAE702B0F0BC7047001002400000014051
:10065000000801400000211000003110000401409A
:1006600012B90904016170470161704770470000C9
:1006700008B5054B5B69034200D108BD024B5861C8
:10068000FFF7F4FFF9E700BF0004014082B0084B18
:100690001B68084AA2FB03235B0A00FB03F00190DE
:1006A00000BF019B5A1E0192002BF9D102B0704786
:1006B0000C000020D34D621070B582B00446036870
:1006C00013F0010F2CD0AB4B5B6803F00C03042B31
:1006D0001DD0A84B5B6803F00C03082B12D0636895
:1006E000B3F5803F41D0002B55D103F1804303F592
:1006F00004331A6822F480321A601A6822F48022C5
:100700001A6037E09B4B5B6813F4803FE7D0994B4E
:100710001B6813F4003F03D06368002B00F0AE8128
:10072000236813F0020F76D0924B5B6813F00C0F26
:100730005FD0904B5B6803F00C03082B54D0236907
:10074000002B00F08A808C4B01221A60FFF742FDDB
:100750000546884B1B6813F0020F75D1FFF73AFD71
:10076000401B0228F5D903208BE1824A136843F429
:1007700080331360636843B3FFF72CFD05467D4B60
:100780001B6813F4003FCBD1FFF724FD401B642806
:10079000F5D9032075E1B3F5A02F09D0754B1A6880
:1007A00022F480321A601A6822F480221A60E1E78B
:1007B00003F18043A3F53C331A6842F480221A60A7
:1007C0001A6842F480321A60D4E7FFF703FD054649
:1007D000684B1B6813F4003FA2D0FFF7FBFC401BE3
:1007E0006428F5D903204CE1624B5B6813F4803F29
:1007F000A5D1604B1B6813F0020F04D02369012BB5
:1008000001D001203DE15B4A136823F0F8036169E0
:1008100043EAC1031360236813F0080F32D0A369C1
:10082000002B5BD0554B01221A60FFF7D3FC054625
:10083000504B5B6A13F0020F21D1FFF7CBFC401B3A
:100840000228F5D903201CE14A4A136823F0F80373
:10085000616943EAC1031360DDE7474B00221A6078
:10086000FFF7B8FC0546434B1B6813F0020FD2D0CC
:10087000FFF7B0FC401B0228F5D9032001E101205D
:10088000FFF704FF236813F0040F00F09780394B43
:10089000DB6913F0805F33D1364BDA6942F0805266
:1008A000DA61DB6903F080530193019B0125344B2E
:1008B0001B6813F4807F25D0E368012B36D0002B12
:1008C0004CD103F1804303F504331A6A22F001028C
:1008D0001A621A6A22F004021A622CE0274B0022E4
:1008E0001A60FFF777FC0546224B5B6A13F0020F94
:1008F000C8D0FFF76FFC401B0228F5D90320C0E0E9
:100900000025D4E71E4A136843F480731360FFF791
:1009100061FC06461A4B1B6813F4807FCCD1FFF7AD
:1009200059FC801B6428F5D90320AAE0114A136AF8
:1009300043F001031362E36873B3FFF74BFC064611
:100940000C4B1B6A13F0020F37D1FFF743FC801BDF
:1009500041F288339842F3D9032092E0052B11D05D
:10096000044B1A6A22F001021A621A6A22F0040287
:100970001A62E0E700100240000042428004424256
:1009800000700040414B1A6A42F004021A621A6A6F
:1009900042F001021A62CEE7FFF71CFC06463B4B11
:1009A0001B6A13F0020F08D0FFF714FC801B41F202
:1009B00088339842F3D9032063E0E5B9E369002B5B
:1009C0005ED0324A526802F00C02082A5BD0022B39
:1009D00017D02F4B00221A60FFF7FCFB04462B4B6D
:1009E0001B6813F0007F47D0FFF7F4FB001B0228C1
:1009F000F5D9032045E0254AD36923F08053D3611C
:100A0000DCE7234B00221A60FFF7E4FB05461F4B8F
:100A10001B6813F0007F06D0FFF7DCFB401B0228A9
:100A2000F5D903202DE0236AB3F5803F1AD017498A
:100A30004B6823F47413226A606A024313434B60C9
:100A4000134B01221A60FFF7C5FB04460F4B1B68CE
:100A500013F0007F0ED1FFF7BDFB001B0228F5D974
:100A600003200EE0094A536823F40033A1680B43C6
:100A70005360DCE7002004E0002002E0012000E0F9
:100A8000002002B070BD0120FBE700BF0010024053
:100A90006000424210B487B0164C94E80F000DF18C
:100AA000180C0CE90F00238AADF80430124B5B6878
:100AB00003F00C02082A1AD1C3F38342624412F8ED
:100AC000102C13F4803F05D10C4800FB02F007B056
:100AD00010BC7047084B5B68C3F34043634413F892
:100AE000143C074800FB02F0B0FBF3F0EFE70448CA
:100AF000EDE700BF981F00080010024000093D000C
:100B000000127A00594B1B6803F007038B420CD28A
:100B1000564A136823F007030B431360136803F06E
:100B200007038B4201D00120704770B5036813F0B2
:100B3000020F06D04E4A536823F0F0038468234323
:100B400053600C460546036813F0010F52D043680A
:100B5000012B23D0022B28D0454A126812F0020F35
:100B600000F0828042494A6822F0030213434B603E
:100B7000FFF730FB06466B68012B1DD0022B2AD0F5
:100B80003B4B5B6813F00C0F34D0FFF723FB801B4B
:100B900041F288339842F3D9032064E0344A126862
:100BA00012F4003FDED101205DE0314A126812F0FC
:100BB000007FD7D1012056E02D4B5B6803F00C037A
:100BC000042B17D0FFF706FB801B41F288339842B5
:100BD000F2D9032047E0264B5B6803F00C03082B97
:100BE00008D0FFF7F7FA801B41F288339842F2D918
:100BF000032038E01D4B1B6803F00703A3420CD908
:100C00001A4A136823F0070323431360136803F0A1
:100C10000703A34201D0012025E02B6813F0040F45
:100C200006D0134A536823F4E063E9680B4353602A
:100C30002B6813F0080F07D00D4A536823F4605354
:100C4000296943EAC1035360FFF724FF084B5B683F
:100C5000C3F30313074AD35CD840074B18600F2037
:100C6000FFF776FA002070BD0120FCE7002002406B
:100C700000100240D41F00080C000020014B18682F
:100C8000704700BF0C00002008B5FFF7F7FF044BCA
:100C90005B68C3F30223034AD35CD84008BD00BF9E
:100CA00000100240E41F000808B5FFF7E7FF044BFF
:100CB0005B68C3F3C223034AD35CD84008BD00BFBE
:100CC00000100240E41F00082DE9F84305460268C1
:100CD000136923F44053C1680B43136183680269AD
:100CE0001343426913430168CA6822F4B05222F0E8
:100CF0000C021343CB600268536923F4407381698B
:100D00000B4353610268594B9A4257D0FFF7BCFF1F
:100D100000EB800000EB80006C68A400B0FBF4F4F2
:100D2000534FA7FB043464092601FFF7ADFF00EB26
:100D3000800000EB80006C68A400B0FBF4F9FFF7C2
:100D4000A3FF00EB800000EB80006C68A400B0FB08
:100D5000F4F4A7FB043464094FF0640808FB14940E
:100D600024013234A7FB0434640904F0F004344451
:100D7000FFF78AFF00EB800000EB80006E68B60092
:100D8000B0FBF6F6FFF780FF00EB800000EB800081
:100D90006B689B00B0FBF3F0A7FB0030400908FB39
:100DA00010684FEA081808F13208A7FB0837C7F3A4
:100DB00043172B6827449F60BDE8F883FFF774FF53
:100DC00000EB800000EB80006C68A400B0FBF4F442
:100DD000274FA7FB043464092601FFF765FF00EBEA
:100DE000800000EB80006C68A400B0FBF4F9FFF712
:100DF0005BFF00EB800000EB80006C68A400B0FBA0
:100E0000F4F4A7FB043464094FF0640808FB14945D
:100E100024013234A7FB0434640904F0F0043444A0
:100E2000FFF742FF00EB800000EB80006E68B60029
:100E3000B0FBF6F6FFF738FF00EB800000EB800018
:100E40006B689B00B0FBF3F0A7FB0030400908FB88
:100E500010684FEA081808F13208A7FB0837C7F3F3
:100E600043172B6827449F60A6E700BF0038014066
:100E70001F85EB5158B310B5044690F839300BB3C9
:100E8000242384F839302268D36823F40053D360D4
:100E90002046FFF719FF2268136923F4904313617A
:100EA0002268536923F02A0353612268D36843F40C
:100EB0000053D3600020E063202384F8393084F8A5
:100EC0003A3010BD80F8383000F06CFFD8E70120D0
:100ED0007047842801D0033070470020704708B560
:100EE00000F0C8F9002008BDF0B585B00F46446891
:100EF00005680669B0F90800FFF7EBFF03AB019343
:100F000000903B46B2B22946204600F081F9012804
:100F100002D1039805B0F0BD0020FBE708B50346F9
:100F200000B90123184600F0E7FA002008BD08B513
:100F300000F08EFB012801D000F04CFC08BD00F150
:100F4000080343604FF0FF328260C36003610023F7
:100F50000360704700230361704743684B609A68E1
:100F60008A609A6851609960086103680133036080
:100F7000704730B40D68B5F1FF3F02D000F10802B0
:100F800002E0026904E01A4653681C68AC42FAD9D0
:100F900053684B6099608A6051600861036801334F
:100FA000036030BC70470369426881689160826861
:100FB000416851605A68824205D000220261186877
:100FC00001381860704782685A60F6E7074B9B6AE1
:100FD0001B6833B1054B9A6AD268D2685268DA62EC
:100FE0007047024B4FF0FF32DA6270472C0000204E
:100FF00010B50446006B00F03DFD204600F03AFDC0
:1010000010BD2DE9F04780469946089D099F0A9C2E
:10101000266B02F18042013A06EB820626F00706B3
:1010200000230F2B07D8C85CE21882F83400CA5C92
:101030000AB10133F5E7002384F84330062D00D9C7
:101040000625E56265644FF0000AC4F848A0201D3B
:10105000FFF780FF04F11800FFF77CFF2461C5F162
:101060000705A5616462C4F84CA084F850A04A4604
:101070004146304600F026FB206007B13C60BDE8E9
:10108000F087000070B5002407E004EB84029300B1
:1010900010481844FFF753FF0134062CF5D90E4CC5
:1010A00004F1BC063046FFF74AFF04F1D00528469C
:1010B000FFF745FF04F11400FFF741FF04F1E400DE
:1010C000FFF73DFF2046FFF73AFFA662C4F8F8504D
:1010D00070BD00BF5C0000202C00002038B5054624
:1010E00000F018FB264BD3F8FC200132C3F8FC209B
:1010F000D3F8003173B1224BD3F804318BB9204BB4
:10110000D3F80031DA6AEB6A9A420AD81C4BC3F86A
:10111000005106E01A4BC3F80051D3F8FC30012B04
:101120002AD0174CD4F808310133C4F80831EB6ADF
:1011300001229A40D4F80C110A43C4F80C2104F19E
:10114000300003EB83039A00291D1044FFF705FFCD
:1011500000F002FBD4F804316BB1D4F80031DA6A44
:10116000EB6A9A4207D2074B4FF080521A60BFF3E6
:101170004F8FBFF36F8F38BDFFF784FFD1E700BFFC
:101180002C00002004ED00E070B504460E461F4B15
:10119000D3F81051D3F800010430FFF704FF60B911
:1011A0001A4BD3F80021D16A012202FA01F1D3F8D7
:1011B0000C2122EA0102C3F80C21B4F1FF3F12D046
:1011C0002C44124BD3F800315C60A54214D80F4D6B
:1011D000A86AD5F800110431FFF7CBFEEB6AA342F1
:1011E00012D9EC6210E0002EEAD00848D0F80011C5
:1011F0000431FFF7B2FE07E0044BD3F8F800D3F850
:1012000000110431FFF7B5FE70BD00BF2C000020B7
:101210002DE9F04385B0074688461546994690006B
:1012200000F0A2FBF8B10646542000F09DFB0446F6
:10123000A8B10663D4B10023039302940D9B0193DC
:101240000C9B00934B462A4641463846FFF7D9FE91
:101250002046FFF743FF012005B0BDE8F08330468C
:1012600000F008FCE6E74FF0FF30F5E74FF0FF3005
:10127000F2E7000000B583B0174B01930023009301
:10128000802216491648FFF7C3FF012805D0B0F1A8
:10129000FF3F17D003B05DF804FB4FF0500383F31A
:1012A0001188BFF36F8FBFF34F8F0E4B4FF0FF329C
:1012B000DA620122C3F804210022C3F8102100F0F1
:1012C000B5FAE7E74FF0500383F31188BFF36F8F50
:1012D000BFF34F8FFEE700BF48010020EC1F00085E
:1012E000991500082C000020034AD2F81831013368
:1012F000C2F81831704700BF2C0000202DE9F041E2
:10130000404BD3F81831002B6CD13E4BD3F8105121
:101310000135C3F81051CDB99B6A1B6843B14FF03A
:10132000500383F31188BFF36F8FBFF34F8FFEE736
:10133000344B9A6AD3F8F8109962C3F8F820D3F8BE
:1013400020210132C3F82021FFF740FE2D4BDB6A3C
:10135000AB423DD900242B4AD2F80031DB6A03EBC3
:10136000830399000A44136B012B42D9012440E006
:101370000124244B9B6A1B6863B3224B9B6ADB6886
:10138000DE6873689D422AD306F104084046FFF7E1
:101390000AFEB36A1BB106F11800FFF704FEF36AF8
:1013A00001229A40174FD7F80C110A43C7F80C21B5
:1013B00007F1300003EB83039A0041461044FFF726
:1013C000CCFDF26AD7F80031DB6A9A42D0D2D0E77E
:1013D0000024CEE70B4B4FF0FF32DA62BBE7094A3D
:1013E000D362B8E7074AD2F824310133C2F8243176
:1013F0000024044BD3F8283103B101242046BDE872
:10140000F08100BF2C000020394BD3F8183143B9CC
:101410004FF0500383F31188BFF36F8FBFF34F8FEB
:10142000FEE770B500F076F9314BD3F81821013A98
:10143000C3F81821D3F81831002B54D12C4BD3F812
:10144000FC3023B9002400F087F9204670BD002449
:10145000274B5B692BB3264D2B6ADC6804F118001F
:10146000FFF7A1FD261D3046FFF79DFDE36A01222F
:101470009A40D5F80C110A43C5F80C2105F130004B
:1014800003EB83039A0031461044FFF766FDE26ADE
:10149000D5F80031DB6A9A42DAD30122C5F8282157
:1014A000D6E70CB1FFF792FD114BD3F8244164B19C
:1014B000FFF724FF18B10E4B0122C3F82821013C8D
:1014C000F6D10B4B0022C3F82421094BD3F8283165
:1014D0005BB1084B4FF080521A60BFF34F8FBFF3E0
:1014E0006F8F0124AFE70024ADE70024ABE700BF16
:1014F0002C00002004ED00E010B5B0B104460F4B05
:10150000D3F8183143B14FF0500383F31188BFF380
:101510006F8FBFF34F8FFEE7FFF7E6FE00212046F7
:10152000FFF732FEFFF770FF38B9054B4FF08052DE
:101530001A60BFF34F8FBFF36F8F10BD2C000020D8
:1015400004ED00E038B5134BD3F814310BB3FFF7BB
:10155000CBFE104BD3F8E440FFF756FF002CF2D03F
:1015600000F0D8F80B4CD4F8F030DD68281DFFF7F8
:101570001AFDD4F8FC30013BC4F8FC30D4F8143127
:10158000013BC4F8143100F0E7F82846FFF730FDBE
:10159000D9E738BD2C00002008B5FFF7D3FF064B74
:1015A0001B6B012BF9D9054B4FF080521A60BFF32A
:1015B0004F8FBFF36F8FF0E72C00002004ED00E0A9
:1015C000224BD3F8183123B1204B0122C3F8282134
:1015D00070471E4A0023C2F82831D2F80C31B3FA02
:1015E00083F3DBB2C3F11F0303EB830081000A44E2
:1015F000126B42B94FF0500383F31188BFF36F8F22
:10160000BFF34F8FFEE710B4104A9900CC18A0002A
:101610001044446B646844633032194488000830D5
:10162000024494420AD0094903EB83039A000A4416
:10163000536BDB68C1F8003110BC70476168034828
:10164000142202FB03025163EDE700BF2C000020CF
:10165000064BD3F804313BB1044BD3F818310BB12E
:101660000020704702207047012070472C000020A6
:101670000B4B1B68B3F1FF3F08D04FF0500383F3CF
:101680001188BFF36F8FBFF34F8FFEE74FF050030A
:1016900083F31188BFF36F8FBFF34F8FFEE700BF57
:1016A0000800002006480068006880F3088862B6D9
:1016B00061B6BFF34F8FBFF36F8F00DF00BF000035
:1016C00008ED00E04FF0807340F8043C21F0010188
:1016D00040F8081C034B40F80C3C40F8202C4038E4
:1016E000704700BF711600080000000000000000F5
:1016F000074B19680868B0E8F00F80F30988BFF35A
:101700006F8F4FF0000080F311884EF00D0E704780
:101710002C0100204FF0500383F31188BFF36F8F2B
:10172000BFF34F8F0A4A136801331360012B00D0B7
:101730007047084B1B6813F0FF0FF9D04FF05003B0
:1017400083F31188BFF36F8FBFF34F8FFEE700BFA6
:101750000800002004ED00E0094B1B6843B94FF07E
:10176000500383F31188BFF36F8FBFF34F8FFEE7F2
:10177000013B034A13600BB983F31188704700BF24
:101780000800002000000000000000000000000031
:10179000EFF30980BFF36F8F0D4B1A6820E9F00F4C
:1017A00010602DE908404FF0500080F31188FFF7DA
:1017B00007FF4FF0000080F31188BDE8084019686A
:1017C0000868B0E8F00F80F30988BFF36F8F7047A7
:1017D0002C01002008B54FF0500383F31188BFF3AC
:1017E0006F8FBFF34F8FFFF789FD18B1034B4FF099
:1017F00080521A60002383F3118808BD04ED00E0D5
:10180000064B1B68064AA2FB03239B09013B054AC2
:101810001360054B07221A60704700BF0C000020C0
:10182000D34D621014E000E010E000E000B583B09A
:101830001E4B1A78D2B20192FF221A701B78DBB2CB
:101840008DF803309DF8033003F05003184A1370ED
:101850000723536009E0164A5368013B53609DF823
:1018600003305B00DBB28DF803309DF8033013F0DA
:10187000800FF0D10E4A53681B0203F4E0635360FB
:10188000019BDBB2094A13700A4B1A6842F47002DA
:101890001A601A6842F070421A60FFF7B1FF064BF7
:1018A00000221A60FFF7FEFEFFF7E2FE00E400E010
:1018B0005801002020ED00E008000020134A12F03B
:1018C000070F20D0D11D21F00701C1F5406313445B
:1018D0000A460E49C1F8002C0020C1F8040C13443C
:1018E000083B23F00703C1F8083C58601860981AB9
:1018F00050601360C1F80C0CC1F8100C4FF000439D
:10190000C1F8143C70474FF44063E2E760010020E7
:1019100010B4134B1A6882421BD359685C18844276
:1019200003D1406801445960184641684418A242F6
:1019300013D10C4CD4F8084CA2420CD0526811447C
:1019400041601A6812680260984200D0186010BCAA
:1019500070471346DEE70460F6E70260F4E700BF75
:10196000600D00206001002070B50446FFF7BCFC4C
:101970003F4BD3F8083CC3B13D4BD3F8143C1C4259
:101980006CD1ACB1083414F0070F11D024F0070467
:10199000083404F007035BB14FF0500383F3118860
:1019A000BFF36F8FBFF34F8FFEE7FFF787FFE3E7CC
:1019B000002C55D02E4BD3F8103CA34252D32C4BC5
:1019C000D3F8005C03F5406301E02B4615466A68D6
:1019D000A24202D22A68002AF7D1254AD2F8082C5E
:1019E000AA4241D01E6808362A681A606B681B1B21
:1019F000102B10D9281910F0070F08D04FF0500302
:101A000083F31188BFF36F8FBFF34F8FFEE74360FF
:101A10006C60FFF77DFF6968154AD2F8103C5B1ACD
:101A2000C2F8103CD2F80C2C934202D2104AC2F8F1
:101A30000C3C0F4BD3F8143C0B436B6000232B6022
:101A4000FFF7E2FC16F0070F10D04FF0500383F3BE
:101A50001188BFF36F8FBFF34F8FFEE70026EFE7CC
:101A60000026EDE70026EBE70026E9E7304670BDEB
:101A70006001002098B338B50446A0F1080550F87D
:101A8000042C1749D1F8141C0A4208D14FF0500316
:101A900083F31188BFF36F8FBFF34F8FFEE750F8CA
:101AA000080C40B14FF0500383F31188BFF36F8FE0
:101AB000BFF34F8FFEE722EA010244F8042CFFF740
:101AC00013FC54F8041C064AD2F8103C0B44C2F82C
:101AD000103C2846FFF71CFFFFF796FC38BD704707
:101AE0006001002030B589B0254B9A6942F01002A0
:101AF0009A619A6902F010020092009A9A6942F083
:101B000020029A619A6902F020020192019A9A6970
:101B100042F004029A619A6902F004020292029A67
:101B20009A6942F008029A619B6903F008030393E3
:101B3000039B144D002220212846FEF791FD4FF40F
:101B400000530493104B05930024069404A90F48F6
:101B5000FEF79CFC202304930123059306940223A3
:101B6000079304A92846FEF791FC22460521282068
:101B7000FEF748FB2820FEF779FB09B030BD00BF17
:101B80000010024000080140000011100010014048
:101B900000B583B00E4B5A6942F001025A615B698D
:101BA00003F001030193019B002205211020FEF7A1
:101BB00029FB1020FEF75AFB002205211120FEF719
:101BC00021FB1120FEF752FB03B05DF804FB00BFC0
:101BD0000010024008B50120FFF7A0F9FBE708B5A7
:101BE0000120FFF79BF9FBE7FEE7000008B50B4873
:101BF0000B4B03604FF4E133436000238360C36009
:101C000003610C2242618361C361FFF733F900B9BC
:101C100008BDEB210348FFF7E7FF00BF0C0E0020D3
:101C200000440040F41F000800B591B00223069361
:101C300001220A9210220B920D9300230E934FF46F
:101C400060130F9306A8FEF737FD08BB0F2301931F
:101C500002210291002303934FF4806204920593C2
:101C600001A8FEF74FFFB8B9FFF708F80C4BA3FB2C
:101C700000308009FEF706FB0420FEF719FB002266
:101C80000F214FF0FF30FEF7BDFA11B05DF804FBF5
:101C9000C0210448FFF7A8FFCE210248FFF7A4FFA8
:101CA000D34D6210F41F000800B58BB0FEF774FA34
:101CB000FFF7BAFFFFF716FFFFF76AFFFFF796FF80
:101CC0000D4C05AD26460FCE0FC533682B600021A5
:101CD00005A8FFF709F9094B18606D4614340FCCBD
:101CE0000FC523682B6000216846FFF7FDF8044B01
:101CF0001860FFF7F4F8FEE7AC1F00087C0D002029
:101D0000080E002000B583B0244B9A6942F001020E
:101D10009A619A6902F001020092009ADA6942F02F
:101D20008052DA61DB6903F080530193019B032049
:101D3000FEF756FA002211466FF00B00FEF762FA2A
:101D4000002211466FF00A00FEF75CFA00221146ED
:101D50006FF00900FEF756FA002211466FF00400FA
:101D6000FEF750FA002211466FF00300FEF74AFA20
:101D700000220F216FF00100FEF744FA00220F212C
:101D80004FF0FF30FEF73EFA054A536823F0E06358
:101D900043F00073536003B05DF804FB0010024091
:101DA000000001400268264B9A4200D0704710B5EF
:101DB00086B0044603F5E633DA6942F40032DA61AC
:101DC000DB6903F400330193019B0C23029302238C
:101DD0000393059302A91B48FEF758FB1A481B4BB7
:101DE00003600023436083608022C260036143611B
:101DF0008361C361FEF76CFAB8B9134B63635C622D
:101E00001348144B03601023436000238360802237
:101E1000C260036143618361C361FEF759FA48B947
:101E20000B4B23635C6206B010BD83210A48FFF7A9
:101E3000DBFEE2E793210848FFF7D6FEF0E700BF9C
:101E40000044004000080140800D00206C0002406A
:101E5000C40D0020800002401C2000087047FEE7EF
:101E6000FEE7FEE7FEE7704708B5FEF7A7F9FFF7C4
:101E70005EF808BD08B50248FEF766FA08BD00BF67
:101E8000800D002008B50248FEF75EFA08BD00BFCD
:101E9000C40D002008B54FF40050FEF7E9FB08BD63
:101EA0000F4B1A6842F001021A6059680D4A0A4045
:101EB0005A601A6822F0847222F480321A601A681A
:101EC00022F480221A605A6822F4FE025A604FF40B
:101ED0001F029A60044B4FF000629A60704700BF87
:101EE000001002400000FFF800ED00E0002103E0D8
:101EF0000B4B5B58435004310A480B4B42189A4233
:101F0000F6D30A4A02E0002342F8043B084B9A4207
:101F1000F9D3FFF7C5FF00F00FF8FFF7C5FE7047D4
:101F200040200008000000201000002010000020C9
:101F30004C0E0020FEE7000070B500250C4E0D4C45
:101F4000A41BA410A54209D100F01AF800250A4EDE
:101F50000A4CA41BA410A54205D170BD56F825302B
:101F600098470135EEE756F8253098470135F2E7F6
:101F70003820000838200008382000083C200008DD
:101F8000F8B500BFF8BC08BC9E467047F8B500BF66
:081F9000F8BC08BC9E46704736
:101F980002030405060708090A0B0C0D0E0F1010A2
:101FA8000102000010200008D51B000800000000F6
:101FB800000000008000000004200008DF1B00086B
:101FC800FDFF00000000000080000000000000008D
:101FD80000000000010203040607080900000000D1
:101FE8000102030449444C45000000002E2E2F53E3
:101FF80072632F6D61696E2E630000006D79546104
:10200800736B30320000000064656661756C74544F
:1020180061736B002E2E2F5372632F73746D3332DE
:10202800663178785F68616C5F6D73702E6300004D
:042038003501000866
:04203C001101000886
:102040000100000010000000AAAAAAAA00A24A04E7
:0400000508001EEDE4
:00000001FF
